:100000000C9435010C9466010C9466010C94660105
:100010000C9466010C9466010C9466010C946601C4
:100020000C9466010C9466010C9466010C946601B4
:100030000C9466010C9466010C9466010C946601A4
:100040000C9466010C94D5070C9466010C9466011F
:100050000C9466010C9466010C9466010C940107E3
:100060000C9466010C94CB060C94A1060C946601CA
:100070000C9466010C9466010C9466010C94660164
:100080000C94A7070C9466010C9466010C9466010D
:100090000C9466010C9466010C9466010C94660144
:1000A0000C9466010C9466010C9479070C9466011B
:1000B0000C9466010C9466010C9466010C944B0739
:1000C0000C9466010C9466010C9466010C946B060A
:1000D0000C9441060C9466010C9466010C94660124
:1000E0000C9466010C9447020C940B020C948C0344
:1000F0000C9438020C9469020C94B9030C949B0381
:100100000C94C7030C94C1030C9490030C947503D6
:100110000C9494030C947A030C9498030C945B0253
:100120000C94A5030C94AB030C94AF030C944808F7
:100130000C94B3030C94AB020C94A1030C94F8023E
:100140000C94CB030C94BD03000020002300260078
:1001500029002C002F0032000001000003010601DD
:10016000090100002100240027002A002D00300092
:10017000330001010000040107010A010000220010
:10018000250028002B002E00310034000201000061
:10019000050108010B010505050507050808080804
:1001A000020202020A0A080804040404010101010F
:1001B000010101010303030303030303040707070A
:1001C0000C0C0C0C0C0C0C0C0202020206060606AF
:1001D000060606060B0B0B0B0B0B0B0B010210207C
:1001E000200808102040102040800201020108046D
:1001F0000201010204081020408080402010080401
:100200000201800402018040201008040201080459
:10021000020101020408102040800102040810209D
:10022000408000000A0B02090C0D0E0807030401B0
:1002300000000000000000000000000000000000BE
:10024000000000000000000000000000000012118B
:10025000100000000000000000000000000000008E
:100260000000000000000000480811241FBECFEF6E
:10027000D1E2DEBFCDBF00E00CBF12E0A0E0B2E0F3
:10028000E2EBF7E100E00BBF02C007900D92A23154
:10029000B107D9F723E0A2E1B2E001C01D92AD3E63
:1002A000B207E1F711E0C5E3D1E000E006C0219715
:1002B0000109802FFE010E94BB0BC433D10780E0EF
:1002C0000807A9F70E94E1080C94D70B0C940000D2
:1002D000FC01A089B18982E08C93A485B5851C922C
:1002E000A685B7858FEC8C93108EA489B58986E09E
:1002F0008C93A289B3898C9180618C93A289B389F4
:100300008C9188608C93A289B3898C9180688C933E
:100310000288F389E02D80818F7D80830895CF92BC
:10032000DF92EF92FF92DC01A03282E0B807D4F5B1
:10033000A53BB10514F0A4EBB0E04091EB0328E835
:1003400030E0241B310947FD3395220F331F220F64
:10035000331F6901330FEE08FF084091EC0328E5D5
:1003600032E0241B310947FD3395220F331F220F42
:10037000331F032E000C440B550B2C193D094E095D
:100380005F09B7FF02C0B0E0A0E00E94310A24EB91
:1003900030E040E050E00E94070AC20ED31EE41E87
:1003A000F51ED601E091EA03E03380F52091EB03DE
:1003B00088E890E0821B910927FD9395880F991F8B
:1003C000880F991FA817B90784F02091EC0388E5DE
:1003D00092E0821B910927FD9395880F991F880F42
:1003E000991FA817B9070CF4CD010297880F991F20
:1003F0004FB7F8942E2F30E0F901EE0FFF1FE20FF8
:10040000F31FE75AFC4F928381834FBFFF90EF9019
:10041000DF90CF900895AF92BF92CF92DF92EF928C
:10042000FF920F931F93CF93DF936C017B018B019E
:10043000040F151FEB015E01AE18BF08C017D107EE
:1004400059F06991D601ED91FC910190F081E02D78
:10045000C6011995892B79F7C501DF91CF911F91BD
:100460000F91FF90EF90DF90CF90BF90AF900895E5
:10047000FC01538D448D252F30E0842F90E0821BAA
:10048000930B541710F0CF96089501970895FC012F
:10049000918D828D981761F0A28DAE0FBF2FB11D87
:1004A0005D968C91928D9F5F9F73928F90E00895DF
:1004B0008FEF9FEF0895FC01918D828D981731F099
:1004C000828DE80FF11D858D90E008958FEF9FEFED
:1004D0000895FC01918D228D892F90E0805C9F4FC3
:1004E000821B91098F73992708958FE192E00E94F2
:1004F000690221E0892B09F420E0822F08958CEB1A
:1005000092E00E94690221E0892B09F420E0822F09
:100510000895FC01A48DA80FB92FB11DA35ABF4F98
:100520002C91848D90E001968F739927848FA689F2
:10053000B7892C93A089B1898C91837080648C9346
:10054000938D848D981306C00288F389E02D8081F5
:100550008F7D80830895EF92FF920F931F93CF9327
:10056000DF93EC0181E0888F9B8D8C8D98131AC0EE
:10057000E889F989808185FF15C09FB7F894EE89D5
:10058000FF896083E889F989808183708064808332
:100590009FBF81E090E0DF91CF911F910F91FF907D
:1005A000EF900895F62E0B8D10E00F5F1F4F0F7325
:1005B0001127E02E8C8D8E110CC00FB607FCFACFE0
:1005C000E889F989808185FFF5CFCE010E948902F3
:1005D000F1CFEB8DEC0FFD2FF11DE35AFF4FF082B1
:1005E0009FB7F8940B8FEA89FB8980818062CFCF17
:1005F000CF93DF93EC01888D8823B9F0AA89BB895A
:10060000E889F9898C9185FD03C0808186FD0DC044
:100610000FB607FCF7CF8C9185FFF2CF808185FF65
:10062000EDCFCE010E948902E9CFDF91CF910895ED
:1006300080E090E0892B29F00E947F0281110E94C6
:10064000000080E090E0892B49F080E090E0892B69
:1006500029F00E94000081110E94000080E090E0DB
:10066000892B29F00E94750281110E94000080E010
:1006700090E0892B49F080E090E0892B29F00E94DE
:10068000000081110C9400000895282F30E0F9013A
:10069000EE5DFD4F9491F901E452FE4F44912A56CC
:1006A0003E4FF9012491222309F435C0992311F119
:1006B00091509231F8F4E92FF0E08827ED59FC4F82
:1006C0008F4F0C94BB0B9403980375038C0390031A
:1006D0007A039B03A103A503AB03AF03B303B903E1
:1006E000BD037A03C103C703CB03809180008F77DA
:1006F00080938000E22FF0E0EE0FFF1FE458FE4FE2
:10070000A591B4918FB7F894EC91611148C04095D0
:100710004E234C938FBF0895809180008F7DE8CF4A
:1007200080918000877FE4CF84B58F7784BDE2CF4E
:1007300084B58F7DFBCF8091B0008F778093B00020
:10074000D9CF8091B0008F7DF9CF809190008F77C5
:1007500080939000CFCF809190008F7DF9CF8091D2
:100760009000877FF5CF8091A0008F778093A000C5
:10077000C1CF8091A0008F7DF9CF8091A000877FAD
:10078000F5CF809120018F7780932001B3CF8091A6
:1007900020018F7DF9CF80912001877FF5CF4E2BEF
:1007A000B8CFCF93DF9390E0FC01E452FE4F249149
:1007B0008A569E4FFC0184918823D1F090E0880FE7
:1007C000991FFC01EE59FE4FA591B491FC01E4582C
:1007D000FE4FC591D49161110EC09FB7F8948C91D2
:1007E000E22FE0958E238C932881E223E8839FBF3C
:1007F000DF91CF9108958FB7F894EC91E22BEC93B1
:100800008FBFF6CF3FB7F89480911B0290911C02E6
:10081000A0911D02B0911E0226B5A89B05C02F3FD6
:1008200019F00196A11DB11D3FBFBA2FA92F982F16
:100830008827BC01CD01620F711D811D911D42E011
:10084000660F771F881F991F4A95D1F708958F92D9
:100850009F92AF92BF92CF92DF92EF92FF924B01A5
:100860005C010E9402046B017C010E9402046C196D
:100870007D098E099F09683E734081059105A8F3A3
:1008800021E0821A9108A108B10888EEC80E83E021
:10089000D81EE11CF11C81149104A104B10429F7B4
:1008A000FF90EF90DF90CF90BF90AF909F908F9090
:1008B0000895AF92BF92CF92DF92EF92FF920F9383
:1008C0001F93CF93DF936B017A01EC01CE5EDD4F76
:1008D00028813CE0389F8001399F100D1124A090A1
:1008E000E903B12C27FF1FC0FB0111821082888110
:1008F0008F5F888388819801280F311D87FD3A9585
:10090000F6012A153B051CF488818C30C4F18081E6
:100910009181049680349C4908F473C0F60180816B
:100920009181049670C088819801280F311D87FD40
:100930003A952A153B05DCF68881A801480F511D20
:1009400087FD5A95FA01EE0FFF1FE40FF51FE75AD6
:10095000FC4F808186FFCBCF8881F801E80FF11D25
:1009600087FDFA95CF01EE0FFF1FE80FF91FE75A39
:10097000FC4F808160E08F730E944503B8CF808177
:1009800091812881A801420F511D27FD5A959A0196
:10099000FA01EE0FFF1FE20FF31FE75AFC4F218110
:1009A0003281820F931FF7019183808388819801A0
:1009B000280F311D87FD3A95F901EE0FFF1FE20F59
:1009C000F31FE75AFC4F808186FF22C08881080F01
:1009D000111D87FD1A95F801EE0FFF1FE00FF11FA3
:1009E000E75AFC4F808161E08F73DF91CF911F91B7
:1009F0000F91FF90EF90DF90CF90BF90AF900C944D
:100A0000450380E49CE9F701918380838FEF88831D
:100A1000DF91CF911F910F91FF90EF90DF90CF90DA
:100A2000BF90AF9008952F923F924F925F926F9236
:100A30007F928F929F92AF92BF92CF92DF92EF926E
:100A4000FF920F931F93CF93DF93EC01BAE0AB2E8D
:100A5000B12C13E0212E312C03E2802E912C8091B9
:100A6000EC0378E5C72E72E0D72EC81AD10887FDAF
:100A7000D394CC0CDD1CCC0CDD1C0D2C000CEE0832
:100A8000FF088091EB03F8E84F2E512C481A5108CB
:100A900087FD5394440C551C440C551C052C000C2C
:100AA000660877082091EA032F3F09F45DC030E023
:100AB000C901880F991F820F931FFC01E75AFC4F51
:100AC0002181328153E0220F331F5A95E1F750E024
:100AD00040E064E055954795379527956A95D1F79D
:100AE0002E5F3F4F2F5F3F4F032E000C440B550BE3
:100AF0002419350946095709A4EBB0E00E94260ADB
:100B0000A701960124193509460957090E94070AC9
:100B10007901C130D10579F58AE5E816F1040CF0C8
:100B20009DC0C7010E948F01C701B5010E94A70B9C
:100B300060E005970CF061E081E20E9445036EE6FB
:100B400070E080E090E00E9427048CEB92E00E942D
:100B50004702833361F468EE73E080E090E00E9426
:100B60002704CFEFDFEF7BCF30E020E0BBCFEFEF0C
:100B7000EE1AFE0AD1CF219609F070C01E141F0490
:100B80000CF06CC0C7010E948F01C701B5010E9423
:100B9000A70B60E005970CF061E081E20E9445033D
:100BA0006EE670E080E090E00E9427048CEB92E01B
:100BB0000E944702813349F468EE73E080E090E0E0
:100BC0000E942704C1E0D0E04ACF60E08DE20E949D
:100BD0004503C1010197F1F761E08DE20E944503F1
:100BE000C4010197F1F760E08DE20E944503EAE05D
:100BF000F2E06491E4ECF1E08491E82FF0E0EE0F94
:100C0000FF1FE85BFE4F8591949100E412E42FE012
:100C100030E0462F0E94030861157105810591059A
:100C200029F06F5F7F4F8F4F9F4F9F700E94A20AE6
:100C300026E933E44BE05DE30E94060B20E030E060
:100C400040E05FE30E94060B0E946A0A6C33710564
:100C50000CF4B2CFF1E0EF1AF10890CFDF91CF9111
:100C60001F910F91FF90EF90DF90CF90BF90AF90CA
:100C70009F908F907F906F905F904F903F902F90BC
:100C800008951F920F920FB60F9211240BB60F9278
:100C90002F933F934F935F936F937F938F939F9384
:100CA000AF93BF93EF93FF938FE192E00E9489028D
:100CB000FF91EF91BF91AF919F918F917F916F9134
:100CC0005F914F913F912F910F900BBE0F900FBEF0
:100CD0000F901F9018951F920F920FB60F9211242C
:100CE0000BB60F922F938F939F93EF93FF93E09107
:100CF0002F02F09130028081E0913502F0913602AE
:100D000082FD1DC09081809138028F5F8F7320918A
:100D10003902821741F0E0913802F0E0E15EFD4FC8
:100D2000958F80933802FF91EF919F918F912F9132
:100D30000F900BBE0F900FBE0F901F9018958081E3
:100D4000F2CF1F920F920FB60F9211240BB60F9293
:100D50002F933F934F935F936F937F938F939F93C3
:100D6000AF93BF93EF93FF938CEB92E00E948902C5
:100D7000FF91EF91BF91AF919F918F917F916F9173
:100D80005F914F913F912F910F900BBE0F900FBE2F
:100D90000F901F9018951F920F920FB60F9211246B
:100DA0000BB60F922F938F939F93EF93FF93E09146
:100DB000CC02F091CD028081E091D202F091D30279
:100DC00082FD1DC090818091D5028F5F8F7320912D
:100DD000D602821741F0E091D502F0E0E454FD4FD5
:100DE000958F8093D502FF91EF919F918F912F91D5
:100DF0000F900BBE0F900FBE0F901F901895808123
:100E0000F2CF1F920F920FB60F9211242F933F93A0
:100E10008F939F93AF93BF93809117029091180285
:100E2000A0911902B0911A023091160223E0230F0B
:100E30002D3758F50196A11DB11D20931602809300
:100E4000170290931802A0931902B0931A0280918E
:100E50001B0290911C02A0911D02B0911E020196EE
:100E6000A11DB11D80931B0290931C02A0931D0233
:100E7000B0931E02BF91AF919F918F913F912F919F
:100E80000F900FBE0F901F90189526E8230F029623
:100E9000A11DB11DD2CF1F920F920FB60F92112438
:100EA0000BB60F922F933F934F935F936F937F9364
:100EB0008F939F93AF93BF93EF93FF9348E251E0DB
:100EC00064E271E090E080E00E945904FF91EF91AC
:100ED000BF91AF919F918F917F916F915F914F9152
:100EE0003F912F910F900BBE0F900FBE0F901F9050
:100EF00018951F920F920FB60F9211240BB60F92F6
:100F00002F933F934F935F936F937F938F939F9311
:100F1000AF93BF93EF93FF9348EA50E064EA70E029
:100F200083E090E00E945904FF91EF91BF91AF914F
:100F30009F918F917F916F915F914F913F912F91F1
:100F40000F900BBE0F900FBE0F901F9018951F9221
:100F50000F920FB60F9211240BB60F922F933F935F
:100F60004F935F936F937F938F939F93AF93BF93B1
:100F7000EF93FF9348E950E064E970E082E090E08D
:100F80000E945904FF91EF91BF91AF919F918F9172
:100F90007F916F915F914F913F912F910F900BBE79
:100FA0000F900FBE0F901F9018951F920F920FB6C3
:100FB0000F9211240BB60F922F933F934F935F9391
:100FC0006F937F938F939F93AF93BF93EF93FF9311
:100FD00048E850E064E870E081E090E00E94590445
:100FE000FF91EF91BF91AF919F918F917F916F9101
:100FF0005F914F913F912F910F900BBE0F900FBEBD
:101000000F901F901895CF92DF92EF92FF920F935F
:101010001F93E82FF92F05C001501109210931094B
:1010200061F1908196239417B9F305C0015011091D
:101030002109310911F1908196239413F7CFC12C26
:10104000D12CE12CF12C0AC08FEFC81AD80AE80A7B
:10105000F80A0C151D052E053F0579F080818623C1
:10106000841791F36C2D7D2D8E2D9F2D1F910F9147
:10107000FF90EF90DF90CF90089560E070E080E007
:1010800090E01F910F91FF90EF90DF90CF90089527
:10109000109222021092210248EE53E060E070E0CC
:1010A00040932302509324026093250270932602FA
:1010B00084E092E09093200280931F0225ED30E0BF
:1010C00030932C0220932B0224ED30E030932E023B
:1010D00020932D0220ED30E03093300220932F0238
:1010E00021ED30E0309332022093310222ED30E0E6
:1010F000309334022093330226ED30E030933602F1
:1011000020933502109238021092390210923A025E
:1011100010923B021092BF021092BE024093C00296
:101120005093C1026093C2027093C3029093BD02B8
:101130008093BC0285EC90E09093C9028093C80232
:1011400084EC90E09093CB028093CA0280EC90E014
:101150009093CD028093CC0281EC90E09093CF02EB
:101160008093CE0282EC90E09093D1028093D002E3
:1011700086EC90E09093D3028093D2021092D50235
:101180001092D6021092D7021092D8028091E903F1
:10119000803398F491E0980F9093E9038093EA03E9
:1011A00090E0FC01EE0FFF1FE80FF91FE75AFC4F1C
:1011B00088EB9BE09283818308958FEF8093EA030D
:1011C0000895789484B5826084BD84B5816084BDBF
:1011D00085B5826085BD85B5816085BD80916E00D5
:1011E000816080936E001092810080918100826006
:1011F0008093810080918100816080938100809143
:1012000080008160809380008091B1008460809331
:10121000B1008091B00081608093B0008091910016
:101220008260809391008091910081608093910011
:10123000809190008160809390008091A1008260F5
:101240008093A1008091A10081608093A100809192
:10125000A00081608093A000809121018260809332
:1012600021018091210181608093210180912001E1
:1012700081608093200180917A00846080937A005D
:1012800080917A00826080937A0080917A008160F8
:1012900080937A0080917A00806880937A0010921F
:1012A000C1008CEB92E00E9468018FE192E00E9405
:1012B00068018091EA03803308F054C061E088E25D
:1012C0000E94D1038091EA03282F30E0F901EE0F4C
:1012D000FF1FE20FF31FE75AFC4F9081907C98624A
:1012E00090839EE89093EB0394E69093EC032CE0BC
:1012F000622F0E949B0B829FB001112430E020E0FE
:10130000AB01420F531FFA01EE0FFF1FE40FF51F51
:10131000E75AFC4F908196FD17C02F5F3F4F2C304E
:10132000310571F7813009F041C01092800082E0F0
:10133000809381001092850010928400B19A809170
:101340006F00826080936F00E091EA038E2F90E03F
:10135000FC01EE0FFF1FE80FF91FE75AFC4F8081D9
:101360008064808390E080E00E948F0161E08DE2E4
:101370000E94D10360E08EE20E94D10361E081E22D
:101380000E94D1038CEB92E00E94690218161906A4
:1013900054F48CEB92E00E944702813399F581E08E
:1013A00090E00E9413050E941803ECCF823061F494
:1013B00010929000809391001092950010929400EA
:1013C00088BB80937100C0CF833069F41092A00075
:1013D00082E08093A1001092A5001092A40089BB26
:1013E00080937200B1CF8111AFCF1092200182E0C3
:1013F0008093210110922501109224018ABB8093D1
:101400007300A2CF833379F68FEF9FEFCACF052EFB
:1014100097FB1EF400940E941E0A57FD07D00E94FD
:10142000390A07FC03D04EF40C941E0A50954095DF
:10143000309521953F4F4F4F5F4F08959095809580
:10144000709561957F4F8F4F9F4F08950E945B0A63
:10145000A59F900DB49F900DA49F800D911D112408
:101460000895B7FF0C94260A0E94260A821B930B4C
:101470000895A1E21A2EAA1BBB1BFD010DC0AA1FD5
:10148000BB1FEE1FFF1FA217B307E407F50720F0ED
:10149000A21BB30BE40BF50B661F771F881F991F68
:1014A0001A9469F760957095809590959B01AC01B1
:1014B000BD01CF010895A29FB001B39FC001A39FBA
:1014C000700D811D1124911DB29F700D811D11247D
:1014D000911D08950E94710A6894B1110C94000B3B
:1014E00008950E94E50A88F09F5798F0B92F992730
:1014F000B751B0F0E1F0660F771F881F991F1AF0FF
:10150000BA95C9F714C0B13091F00E94FF0AB1E05A
:1015100008950C94FF0A672F782F8827B85F39F059
:10152000B93FCCF3869577956795B395D9F73EF497
:1015300090958095709561957F4F8F4F9F4F08953F
:10154000E89409C097FB3EF490958095709561955D
:101550007F4F8F4F9F4F9923A9F0F92F96E9BB2713
:101560009395F695879577956795B795F111F8CF8F
:10157000FAF4BB0F11F460FF1BC06F5F7F4F8F4FFA
:101580009F4F16C0882311F096E911C0772321F0F0
:101590009EE8872F762F05C0662371F096E8862F88
:1015A00070E060E02AF09A95660F771F881FDAF7DF
:1015B000880F9695879597F9089557FD9058440F91
:1015C000551F59F05F3F71F04795880F97FB991FA2
:1015D00061F09F3F79F0879508951216130614065F
:1015E000551FF2CF4695F1DF08C0161617061806EC
:1015F000991FF1CF86957105610508940895E894C7
:10160000BB2766277727CB0197F908950E94190B0E
:101610000C948A0B0E947C0B38F00E94830B20F004
:10162000952311F00C94730B0C94790B11240C94EA
:10163000000B0E94DD0A70F3959FC1F3950F50E0F7
:10164000551F629FF001729FBB27F00DB11D639F74
:10165000AA27F00DB11DAA1F649F6627B00DA11D1A
:10166000661F829F2227B00DA11D621F739FB00DC0
:10167000A11D621F839FA00D611D221F749F332730
:10168000A00D611D231F849F600D211D822F762FC9
:101690006A2F11249F5750409AF0F1F088234AF0A6
:1016A000EE0FFF1FBB1F661F771F881F9150504012
:1016B000A9F79E3F510580F00C94730B0C94000B1E
:1016C0005F3FE4F3983ED4F3869577956795B79599
:1016D000F795E7959F5FC1F7FE2B880F911D9695B3
:1016E000879597F9089597F99F6780E870E060E023
:1016F00008959FEF80EC089500240A9416161706AB
:1017000018060906089500240A94121613061406F2
:1017100005060895092E0394000C11F4882352F055
:10172000BB0F40F4BF2B11F460FF04C06F5F7F4F0D
:101730008F4F9F4F0895991B79E004C0991F96170A
:1017400008F0961B881F7A95C9F78095089597FB36
:10175000072E16F4009407D077FD09D00E94C30B22
:1017600007FC05D03EF4909581959F4F08957095A4
:1017700061957F4F0895EE0FFF1F881F8BBF079065
:10178000F691E02D1994AA1BBB1B51E107C0AA1FBB
:10179000BB1FA617B70710F0A61BB70B881F991F12
:1017A0005A95A9F780959095BC01CD010895F894BC
:0217B000FFCF69
:1017B20000000000AB020B023802F8026902470285
:0217C2005B02C8
:00000001FF
