:100000000C943B010C946C010C946C010C946C01ED
:100010000C946C010C946C010C946C010C946C01AC
:100020000C946C010C946C010C946C010C946C019C
:100030000C946C010C946C010C946C010C946C018C
:100040000C946C010C946C010C946C010C946C017C
:100050000C946C010C946C010C946C010C949A043B
:100060000C946C010C9464040C943A040C946C0190
:100070000C946C010C946C010C946C010C946C014C
:100080000C946C010C946C010C946C010C946C013C
:100090000C946C010C946C010C946C010C946C012C
:1000A0000C946C010C946C010C946C010C946C011C
:1000B0000C946C010C946C010C946C010C946C010C
:1000C0000C946C010C946C010C946C010C946C01FC
:1000D0000C946C010C946C010C946C010C946C01EC
:1000E0000C946C010C945D030C948E030C948003AF
:1000F0000C9465030C9461030C946E030C948603BA
:100100000C9494030C9468030C9493030C9478035C
:100110000C94F6030C9459030C9472030C943D0256
:100120000C9451020C9436040C9498030C945303D1
:100130000C94E4040C9497020C94C5030C948A0369
:100140000C947C030C945F020C94E4020C94010266
:100150000C942E0200002100240027002A002D000C
:100160003000330001010000040107010A01000012
:100170002200250028002B002E003100340002014F
:100180000000050108010B010000200023002600EB
:1001900029002C002F00320000010000030106019D
:1001A00009010505050507050808080802020202FD
:1001B0000A0A080804040404010101010101010103
:1001C0000303030303030303040707070C0C0C0CCE
:1001D0000C0C0C0C020202020606060606060606B7
:1001E0000B0B0B0B0B0B0B0B010210202008081044
:1001F0002040102040800201020108040201010297
:10020000040810204080804020100804020180046F
:1002100002018040201008040201080402010102CA
:1002200004081020408001020408102040800000D3
:100230000A0B02090C0D0E08070304010000000060
:1002400000000000000000000000000000000000AE
:10025000000000000000000000001211100000006B
:10026000000000000000000000000000000000008E
:1002700000000000E40411241FBECFEFD1E2DEBF76
:10028000CDBF00E00CBF12E0A0E0B2E0E0EEFEE087
:1002900000E00BBF02C007900D92A233B107D9F75F
:1002A00023E0A2E3B2E001C01D92A734B207E1F758
:1002B00011E0CBE3D1E000E006C021970109802FD7
:1002C000FE010E946607CA33D10780E00807A9F73C
:1002D0000E9472050C946E070C94000096E0899FB2
:1002E000D0011124A852BD4F90967C936E935F97D6
:1002F00091E091969C939197E0914503F09146038C
:1003000090914403992339F0309751F0811108C03E
:100310008091F4021994309719F05C968C91FACF81
:100320000895CF92DF92EF92FF920F931F9396E082
:10033000899FF0011124E852FD4F11A2278D30A1B1
:100340002130310551F178F02230310509F451C0E6
:100350002330310509F452C01F910F91FF90EF90A7
:10036000DF90CF9008956623B9F361E070E00E94BA
:100370006E012FB7F8948091370290913802A091C6
:100380003902B0913A022FBF80933003909331032A
:10039000A0933203B0933303DFCF9FB7F894C0909C
:1003A0003702D0903802E0903902F0903A029FBFB5
:1003B00000913003109131032091320330913303C7
:1003C000C01AD10AE20AF30A0091420310914303D2
:1003D00030E020E00C151D052E053F0550F462E0CD
:1003E00070E01F910F91FF90EF90DF90CF900C94F1
:1003F0006E016111B1CF63E070E0F3CF70E060E0B7
:10040000F0CFAF92BF92CF92DF92EF92FF920F9315
:100410001F93CF93DF936C017B018B01040F151F9A
:10042000EB015E01AE18BF08C017D10759F0699102
:10043000D601ED91FC910190F081E02DC601199556
:10044000892B79F7C501DF91CF911F910F91FF9013
:10045000EF90DF90CF90BF90AF900895FC01538D47
:10046000448D252F30E0842F90E0821B930B54178E
:1004700010F0CF96089501970895FC01918D828D1B
:10048000981761F0A28DAE0FBF2FB11D5D968C91B4
:10049000928D9F5F9F73928F90E008958FEF9FEFF3
:1004A0000895FC01918D828D981731F0828DE80FAF
:1004B000F11D858D90E008958FEF9FEF0895FC0169
:1004C000918D228D892F90E0805C9F4F821B910936
:1004D0008F73992708958BE392E00E945F0221E0D9
:1004E000892B09F420E0822F0895FC01A48DA80F28
:1004F000B92FB11DA35ABF4F2C91848D90E0019666
:100500008F739927848FA689B7892C93A089B18985
:100510008C91837080648C93938D848D981306C026
:100520000288F389E02D80818F7D80830895EF928A
:10053000FF920F931F93CF93DF93EC0181E0888F9D
:100540009B8D8C8D98131AC0E889F989808185FF6D
:1005500015C09FB7F894EE89FF896083E889F9890F
:1005600080818370806480839FBF81E090E0DF9111
:10057000CF911F910F91FF90EF900895F62E0B8D64
:1005800010E00F5F1F4F0F731127E02E8C8D8E111F
:100590000CC00FB607FCFACFE889F989808185FF86
:1005A000F5CFCE010E947502F1CFEB8DEC0FFD2F40
:1005B000F11DE35AFF4FF0829FB7F8940B8FEA8941
:1005C000FB8980818062CFCFCF93DF93EC01888D50
:1005D0008823B9F0AA89BB89E889F9898C9185FDBE
:1005E00003C0808186FD0DC00FB607FCF7CF8C914C
:1005F00085FFF2CF808185FFEDCFCE010E9475028D
:10060000E9CFDF91CF91089580E090E0892B29F028
:100610000E946B0281110E94000080E090E0892B13
:1006200049F080E090E0892B29F00E9400008111C0
:100630000E94000080E090E0892B49F080E090E08B
:10064000892B29F00E94000081110E94000080E0A7
:1006500090E0892B49F080E090E0892B29F00E94FE
:10066000000081110C94000008958150823108F03F
:100670005AC0E82FF0E08827EF5BFC4F8F4F0C94B7
:10068000660761036503530359035D03930368031E
:100690006E03720378037C03800386038A0393034B
:1006A0008E0394039803809180008F77809380005D
:1006B0000895809180008F7DF9CF80918000877FA1
:1006C000F5CF84B58F7784BD089584B58F7DFBCF3A
:1006D0008091B0008F778093B00008958091B00032
:1006E0008F7DF9CF809190008F778093900008954F
:1006F000809190008F7DF9CF80919000877FF5CF1A
:100700008091A0008F778093A00008958091A00031
:100710008F7DF9CF8091A000877FF5CF8091200158
:100720008F77809320010895809120018F7DF9CFEC
:1007300080912001877FF5CFCF93DF93282F30E082
:10074000F901E25DFD4F8491F901E851FE4FD4912A
:10075000F901EE55FE4FC491CC23A1F081110E9406
:100760003503EC2FF0E0EE0FFF1FE857FE4FA59189
:10077000B491EC91ED2381E090E009F480E0DF9109
:10078000CF91089580E090E0FACF862F0C949C03DF
:100790001F93CF93DF93282F30E0F901E25DFD4FE7
:1007A0008491F901E851FE4FD491F901EE55FE4FC5
:1007B000C491CC23A9F0162F81110E943503EC2F90
:1007C000F0E0EE0FFF1FE259FE4FA591B4918FB7F5
:1007D000F894EC91111108C0D095DE23DC938FBF03
:1007E000DF91CF911F910895DE2BF8CF862F642FD4
:1007F0000C94C803CF93DF9390E0FC01E851FE4FC7
:1008000024918E559E4FFC0184918823C9F090E07D
:10081000880F991FFC01EC5AFE4FA591B491FC0181
:10082000E259FE4FC591D49161110DC09FB7F89464
:100830008C91209582238C938881282328839FBFC5
:10084000DF91CF910895623051F49FB7F8943C91B5
:10085000822F809583238C93E8812E2BEFCF8FB747
:10086000F894EC912E2B2C938FBFEACF862F642F18
:100870000C94FA031F920F920FB60F9211240BB62D
:100880000F922F933F934F935F936F937F938F9329
:100890009F93AF93BF93EF93FF938BE392E00E94FC
:1008A0007502FF91EF91BF91AF919F918F917F91D1
:1008B0006F915F914F913F912F910F900BBE0F90D1
:1008C0000FBE0F901F9018951F920F920FB60F92A8
:1008D00011240BB60F922F938F939F93EF93FF9357
:1008E000E0914B02F0914C028081E0915102F09135
:1008F000520282FD1DC09081809154028F5F8F73E0
:1009000020915502821741F0E0915402F0E0E55C3D
:10091000FD4F958F80935402FF91EF919F918F919E
:100920002F910F900BBE0F900FBE0F901F90189538
:100930008081F2CF1F920F920FB60F9211242F9346
:100940003F938F939F93AF93BF9380913702909182
:100950003802A0913902B0913A023091360223E078
:10096000230F2D3758F50196A11DB11D2093360296
:100970008093370290933802A0933902B0933A02E1
:100980008091320290913302A0913402B0913502ED
:100990000196A11DB11D8093320290933302A09362
:1009A0003402B0933502BF91AF919F918F913F91E7
:1009B0002F910F900FBE0F901F90189526E8230FD0
:1009C0000296A11DB11DD2CF10923E0210923D029F
:1009D00088EE93E0A0E0B0E080933F029093400265
:1009E000A0934102B093420287E192E090933C02CF
:1009F00080933B0285EC90E09093480280934702FD
:100A000084EC90E090934A028093490280EC90E05D
:100A100090934C0280934B0281EC90E090934E02B5
:100A200080934D0282EC90E09093500280934F02AD
:100A300086EC90E0909352028093510210925402FF
:100A40001092550210925602109257021092DA023A
:100A50001092DE021092DD021092DF0289E292E033
:100A60009093D9028093D802E4EFF2E010821482CE
:100A700013821582369683E0E033F807B9F783E0F6
:100A800092E090933B0380933A0380E092E090934E
:100A90003D0380933C0384E080933E0383E0809396
:100AA0003F0387E092E090933903809338038AE014
:100AB00090E0909341038093400384EF91E0909302
:100AC0004303809342031092460310924503109211
:100AD00034031092350310923603109237031092AC
:100AE00044030895789484B5826084BD84B58160A0
:100AF00084BD85B5826085BD85B5816085BD8091E9
:100B00006E00816080936E00109281008091810060
:100B10008260809381008091810081608093810058
:100B2000809180008160809380008091B10084601A
:100B30008093B1008091B00081608093B00080917B
:100B400091008260809391008091910081608093F8
:100B50009100809190008160809390008091A1002D
:100B600082608093A1008091A10081608093A100A8
:100B70008091A00081608093A0008091210182601B
:100B800080932101809121018160809321018091D6
:100B9000200181608093200180917A00846080939D
:100BA0007A0080917A00826080937A0080917A0046
:100BB000816080937A0080917A00806880937A00C7
:100BC0001092C100E0914B02F0914C0282E08083D0
:100BD000E0914702F09148021082E0914902F091C1
:100BE0004A028FEC808310925302E0914F02F09101
:100BF000500286E08083E0914D02F0914E028081A8
:100C000080618083E0914D02F0914E028081886086
:100C10008083E0914D02F0914E0280818068808354
:100C2000E0914D02F0914E0280818F7D80832224DD
:100C30002394412C512C32014394CC24CA94DC2CB3
:100C400056E0352E209244038FB7F8944091370236
:100C5000509138026091390270913A028FBF8091B1
:100C6000340390913503A0913603B0913703481BAC
:100C7000590B6A0B7B0B8091400390914103B0E0CC
:100C8000A0E084179507A607B70708F00DC1C0E0DC
:100C900080913E03C81760F4E0913A03F0913B0362
:100CA000EC0FF11D62E080810E94FA03CF5FF0CF6C
:100CB000912C80913F03981608F05FC0092D10E039
:100CC000E0913C03F0913D03E00FF11F61E0808172
:100CD0000E94FA03E0913C03F0913D03E00FF11F05
:100CE00060E080810E94C803D301C201092C04C0C6
:100CF000880F991FAA1FBB1F0A94D2F75C017C01C1
:100D0000E094F094812C80913E038816F8F4C82D6D
:100D1000D0E0E0913A03F0913B03EC0FFD1F80819E
:100D20000E949C032496CC0FDD1FC852DD4F892BF7
:100D300041F4888199818A299B29998388838394A6
:100D4000E2CF888199818E219F21F7CFE0913C03EA
:100D5000F0913D03E00FF11F61E080810E94C80324
:100D600080913C0390913D03080F191F60E0F8014A
:100D700080810E94FA0393949CCFC8EDD2E0FE01DB
:100D8000878D90A1892B21F4148ED68EC58E11A249
:100D9000369683E0E431F80799F710E080913E033E
:100DA000181708F052C000E0E12EF12CEE0CFF1CE9
:100DB000F701E052FD4F7F0120913F03021708F039
:100DC00042C0F70160817181002E02C0769567955F
:100DD0000A94E2F7129F90011124200F311DE8EDD3
:100DE000F2E080E0458D568D2417350709F46CC07C
:100DF0008F5F36968A30B1F760FF23C0E8EDF2E0EE
:100E000090E080E0448D411117C0E0913803F091EB
:100E10003903E20FF31F6081389EF001399EF00D17
:100E20001124E852FD4F648F368F258F10A2178E44
:100E300061E00E94910105C0019636968A309105C5
:100E400009F70F5FB9CF1F5FA9CF80E099A191117A
:100E5000892F2696F3E0C431DF07C1F79FB7F894D6
:100E600040913702509138026091390270913A02F4
:100E70009FBF4093340350933503609336037093C0
:100E80003703882389F08091F902882369F08091E3
:100E9000F7029091F802019739F46091F402611120
:100EA00006C00E940403CECE10924403FACF8BE317
:100EB00092E00E94970242E050E06FE272E08BE322
:100EC00092E00E940102EDCF6170B3CFEE0FFF1FE1
:100ED000881F8BBF0790F691E02D1994F894FFCFEF
:100EE0001A1B1C1617181931323334353637383976
:100EF0002A302300000000970201022E02E4025F64
:100F0000023D025102000000003604F603C5030D45
:020F10000A00D5
:00000001FF
